{
  "contractName": "SimpleCrowdsale",
  "abi": [
    {
      "constant": true,
      "inputs": [],
      "name": "rate",
      "outputs": [
        {
          "name": "",
          "type": "uint256"
        }
      ],
      "payable": false,
      "stateMutability": "view",
      "type": "function"
    },
    {
      "constant": true,
      "inputs": [],
      "name": "weiRaised",
      "outputs": [
        {
          "name": "",
          "type": "uint256"
        }
      ],
      "payable": false,
      "stateMutability": "view",
      "type": "function"
    },
    {
      "constant": true,
      "inputs": [],
      "name": "wallet",
      "outputs": [
        {
          "name": "",
          "type": "address"
        }
      ],
      "payable": false,
      "stateMutability": "view",
      "type": "function"
    },
    {
      "constant": true,
      "inputs": [],
      "name": "price",
      "outputs": [
        {
          "name": "",
          "type": "uint256"
        }
      ],
      "payable": false,
      "stateMutability": "view",
      "type": "function"
    },
    {
      "constant": true,
      "inputs": [],
      "name": "token",
      "outputs": [
        {
          "name": "",
          "type": "address"
        }
      ],
      "payable": false,
      "stateMutability": "view",
      "type": "function"
    },
    {
      "inputs": [
        {
          "name": "_price",
          "type": "uint256"
        },
        {
          "name": "_rate",
          "type": "uint256"
        },
        {
          "name": "_wallet",
          "type": "address"
        },
        {
          "name": "_token",
          "type": "address"
        }
      ],
      "payable": false,
      "stateMutability": "nonpayable",
      "type": "constructor"
    },
    {
      "payable": true,
      "stateMutability": "payable",
      "type": "fallback"
    },
    {
      "anonymous": false,
      "inputs": [
        {
          "indexed": false,
          "name": "remainder",
          "type": "uint256"
        }
      ],
      "name": "ProcessedRemainder",
      "type": "event"
    },
    {
      "anonymous": false,
      "inputs": [
        {
          "indexed": true,
          "name": "purchaser",
          "type": "address"
        },
        {
          "indexed": true,
          "name": "beneficiary",
          "type": "address"
        },
        {
          "indexed": false,
          "name": "value",
          "type": "uint256"
        },
        {
          "indexed": false,
          "name": "amount",
          "type": "uint256"
        }
      ],
      "name": "TokenPurchase",
      "type": "event"
    },
    {
      "constant": false,
      "inputs": [
        {
          "name": "_beneficiary",
          "type": "address"
        }
      ],
      "name": "buyTokens",
      "outputs": [],
      "payable": true,
      "stateMutability": "payable",
      "type": "function"
    }
  ],
  "bytecode": "0x608060405234801561001057600080fd5b506040516080806108288339810180604052810190808051906020019092919080519060200190929190805190602001909291908051906020019092919050505082828260008311151561006357600080fd5b600073ffffffffffffffffffffffffffffffffffffffff168273ffffffffffffffffffffffffffffffffffffffff161415151561009f57600080fd5b600073ffffffffffffffffffffffffffffffffffffffff168173ffffffffffffffffffffffffffffffffffffffff16141515156100db57600080fd5b8260028190555081600160006101000a81548173ffffffffffffffffffffffffffffffffffffffff021916908373ffffffffffffffffffffffffffffffffffffffff160217905550806000806101000a81548173ffffffffffffffffffffffffffffffffffffffff021916908373ffffffffffffffffffffffffffffffffffffffff16021790555050505083600481905550505050506106a8806101806000396000f300608060405260043610610078576000357c0100000000000000000000000000000000000000000000000000000000900463ffffffff1680632c4e722e146100835780634042b66f146100ae578063521eb273146100d9578063a035b1fe14610130578063ec8ac4d81461015b578063fc0c546a14610191575b610081336101e8565b005b34801561008f57600080fd5b506100986102cb565b6040518082815260200191505060405180910390f35b3480156100ba57600080fd5b506100c36102d1565b6040518082815260200191505060405180910390f35b3480156100e557600080fd5b506100ee6102d7565b604051808273ffffffffffffffffffffffffffffffffffffffff1673ffffffffffffffffffffffffffffffffffffffff16815260200191505060405180910390f35b34801561013c57600080fd5b506101456102fd565b6040518082815260200191505060405180910390f35b61018f600480360381019080803573ffffffffffffffffffffffffffffffffffffffff1690602001909291905050506101e8565b005b34801561019d57600080fd5b506101a6610303565b604051808273ffffffffffffffffffffffffffffffffffffffff1673ffffffffffffffffffffffffffffffffffffffff16815260200191505060405180910390f35b60006101f48234610328565b6101fe8234610389565b60058190555061020f600554610440565b905061022860055460035461047290919063ffffffff16565b600381905550610238828261048e565b8173ffffffffffffffffffffffffffffffffffffffff163373ffffffffffffffffffffffffffffffffffffffff167f623b3804fa71d67900d064613da8f94b9617215ee90799290593e1745087ad1860055484604051808381526020018281526020019250505060405180910390a36102b38260055461049c565b6102bb6104a0565b6102c78260055461050d565b5050565b60025481565b60035481565b600160009054906101000a900473ffffffffffffffffffffffffffffffffffffffff1681565b60045481565b6000809054906101000a900473ffffffffffffffffffffffffffffffffffffffff1681565b600073ffffffffffffffffffffffffffffffffffffffff168273ffffffffffffffffffffffffffffffffffffffff161415151561036457600080fd5b6000811415151561037457600080fd5b600454811015151561038557600080fd5b5050565b6000806004548381151561039957fe5b0690507f8b21f0a7771f1c4664a41e32a8b6ef53af8d5b2d2136ecca7d7be3040c41befc816040518082815260200191505060405180910390a16000811115610424578373ffffffffffffffffffffffffffffffffffffffff166108fc829081150290604051600060405180830381858888f19350505050158015610422573d6000803e3d6000fd5b505b610437818461051190919063ffffffff16565b91505092915050565b600061046b60025461045d6004548561052a90919063ffffffff16565b61054090919063ffffffff16565b9050919050565b6000818301905082811015151561048557fe5b80905092915050565b6104988282610578565b5050565b5050565b600160009054906101000a900473ffffffffffffffffffffffffffffffffffffffff1673ffffffffffffffffffffffffffffffffffffffff166108fc6005549081150290604051600060405180830381858888f1935050505015801561050a573d6000803e3d6000fd5b50565b5050565b600082821115151561051f57fe5b818303905092915050565b6000818381151561053757fe5b04905092915050565b6000808314156105535760009050610572565b818302905081838281151561056457fe5b0414151561056e57fe5b8090505b92915050565b6000809054906101000a900473ffffffffffffffffffffffffffffffffffffffff1673ffffffffffffffffffffffffffffffffffffffff1663a9059cbb83836040518363ffffffff167c0100000000000000000000000000000000000000000000000000000000028152600401808373ffffffffffffffffffffffffffffffffffffffff1673ffffffffffffffffffffffffffffffffffffffff16815260200182815260200192505050602060405180830381600087803b15801561063c57600080fd5b505af1158015610650573d6000803e3d6000fd5b505050506040513d602081101561066657600080fd5b81019080805190602001909291905050505050505600a165627a7a7230582073cc2eb1b9b33956f82740cb30de30ec85a01f75f90967e53192aeb8446012000029",
  "source": "pragma solidity ^0.4.21;\n\nimport '../node_modules/openzeppelin-solidity/contracts/crowdsale/Crowdsale.sol';\nimport './SimpleToken.sol';\n\ncontract SimpleCrowdsale is Crowdsale {\n\n    uint256 public price;\n\n    uint256 internal weiAmount;\n\n    event ProcessedRemainder(uint256 remainder);\n\n    constructor (uint256 _price, uint256 _rate, address _wallet, SimpleToken _token)\n        public Crowdsale(_rate, _wallet, _token) {\n\n            price = _price;\n\n    }\n\n    /**\n   * @dev low level token purchase ***DO NOT OVERRIDE***\n   * @param _beneficiary Address performing the token purchase\n   */\n    function buyTokens(address _beneficiary) public payable {\n        \n        _preValidatePurchase(_beneficiary, msg.value);\n\n        weiAmount = _processRemainder(_beneficiary, msg.value);\n\n        uint256 tokens = _getTokenAmount(weiAmount);\n\n        weiRaised = weiRaised.add(weiAmount);\n\n        _processPurchase(_beneficiary, tokens);\n        emit TokenPurchase(\n            msg.sender,\n            _beneficiary,\n            weiAmount,\n            tokens\n        );\n\n        _updatePurchasingState(_beneficiary, weiAmount);\n\n        _forwardFunds();\n        _postValidatePurchase(_beneficiary, weiAmount);\n    }\n\n    /**\n       * @dev Transfers back the remainder of the weiAmount against the token price to the beneficiary\n       * @param _beneficiary Address performing the token purchase\n       * @param _weiAmount Value in wei involved in the purchase\n       * @return _weiAmount Value without the remainder\n    */\n    function _processRemainder(address _beneficiary, uint256 _weiAmount) internal returns (uint256) {\n        uint256 remainder = _weiAmount % price;\n\n        emit ProcessedRemainder(remainder);\n\n        if (remainder > 0) {\n            _beneficiary.transfer(remainder);\n        }\n\n        return _weiAmount.sub(remainder);\n    }\n\n    /**\n       * @dev Validation of an incoming purchase. Use require statements to revert state when conditions are not met. Use super to concatenate validations.\n       * @param _beneficiary Address performing the token purchase\n       * @param _weiAmount Value in wei involved in the purchase\n    */\n    function _preValidatePurchase(address _beneficiary, uint256 _weiAmount) internal {\n        require(_beneficiary != address(0));\n        require(_weiAmount != 0);\n        require(_weiAmount >= price);\n    }\n\n    /**\n       * @dev Override to extend the way in which ether is converted to tokens.\n       * @param _weiAmount Value in wei to be converted into tokens\n       * @return Number of tokens that can be purchased with the specified _weiAmount\n   */\n    function _getTokenAmount(uint256 _weiAmount) internal view returns (uint256) {\n       return _weiAmount.div(price).mul(rate);\n    }\n\n    /**\n        * @dev Determines how ETH is stored/forwarded on purchases.\n   */\n    function _forwardFunds() internal {\n        wallet.transfer(weiAmount);\n    }\n}",
  "sourcePath": "/Users/GustavoIbarra/Projects/Solidity/SimpleICO/contracts/simplecrowdsale.sol",
  "compiler": {
    "name": "solc",
    "version": "0.4.24+commit.e67f0147.Emscripten.clang"
  },
  "schemaVersion": "2.0.0",
  "updatedAt": "2018-06-15T15:32:55.840Z"
}